:020000008E2A46
:10000800FF00030E8301C0000A08BF008A017008C0
:10001800A9007108A8007408A7007508A600780848
:10002800A5007908A4007A08A3007B08A2007C0830
:10003800A1007D08A0000408AA008B1C35288B109D
:10004800871B352800302D06031D2C2803302C066D
:10005800031D3128AC01AD013428AC0A0319AD0ADF
:10006800FC212908F0002808F1002708F4002608D8
:10007800F5002508F8002408F9002308FA002208EA
:10008800FB002108FC002008FD002A0884003F0826
:0C0098008A00400E8300FF0E7F0E09005E
:1000A400710DF80DF90D7408F8027508031C750F2D
:1000B400F902F00DF10D0F30FC00710DF80DF90D82
:1000C4007408701C6B28F8027508031C750FF9027C
:1000D4007028F80775080318750FF907F00DF10D6E
:1000E400FC0B5F2870187C287408F807750803183F
:0800F400750FF9070000080078
:1000FC00831203137408003A031D8D287508003A07
:10010C00031D8D28FF30F0007F30F100E6288312AC
:10011C000313FD01F901F80171087004031900348F
:10012C0071087506FA00FA1BFD09FB01F51FA328DF
:10013C00F409F509F40A0319F50AF11FAA28F009C4
:10014C00F109F00A0319F10A71087504FA00FA1B97
:10015C00BF2852207B18D228FD1F0034F009F1096A
:10016C00F00A0319F10AF809F909F80A0319F90A4E
:10017C000034F51FCE28F11BCA287108F90070084D
:10018C00F800F101F001B228F101F001F00A00349D
:10019C00F109F009FB0AAF28F80A0319F90A7408E7
:1001AC007802031DB22875087902031DB228F901E3
:1001BC00F801F00A0319F10AF11FB2280000FF340C
:0201CC00080029
:0E01CE00831203133B088A003A0882000800DF
:1001DC0083120313F8010830FC00700DF80D74083D
:1001EC00F8020318FB28F8070310F00DFC0BF3289A
:0201FC000800F9
:1001FE0083120313871FFB29AC01AD010330AB0043
:10020E002C082F3E8400000887001730AE002E0801
:10021E00003C031881292E08143A031D202914309E
:10022E00AB00AC0A0319AD0A2C082F3E840000085F
:10023E008700B3013230330203187829871B28292F
:10024E00FB290A30F4002E08F000EE207808F000AA
:10025E007008C2004208B7000A30F4002B08F00004
:10026E00EE207808F0007008C1004108B6000A3090
:10027E00F4002E08F000EE207008B9000A30F400E9
:10028E002B08F000EE207008B800851689140511B1
:10029E000910420888004108F000F00D7010700837
:1002AE0086001A30FC00F830FD00FD0B5C29FC0BBB
:1002BE005C2900008512891005150914390888007B
:1002CE003808F000F00D7010700886001A30FC002F
:1002DE00F830FD00FD0B7129FC0B71290000B30AEB
:1002EE002129AB032B08003A031D7F290130AB00F7
:1002FE00AE030E290330AB00AC0A0319AD0A2C086D
:10030E002F3E8400000887000F30AE002E08003C00
:10031E000318FA292E080C3A031D9F290C30AB0046
:10032E00AC0A0319AD0A2C082F3E84000008870082
:10033E00B301323033020318F729871BA729FB2993
:10034E000A30F4002B08F000EE207808F000700858
:10035E00C2004208B7000A30F4002E08F000EE206A
:10036E007808F0007008C1004108B6000A30F400A9
:10037E002B08F000EE207008B9000A30F4002E08A9
:10038E00F000EE207008B8008516891405110910CA
:10039E00420888004108F000F00D701070088600C9
:1003AE001A30FC00F830FD00FD0BDB29FC0BDB29BD
:1003BE0000008512891005150914390888003808BF
:1003CE00F000F00D7010700886001A30FC00F83046
:1003DE00FD00FD0BF029FC0BF0290000B30AA0294B
:0A03EE00AB03AE038D29FF280800C1
:1003F8000030831203132D06031D042A02302C0635
:1004080003190F2A00302D06031D0C2A00302C0674
:1004180003190F2A772A2C082F3E8400000887002A
:10042800AC0A0319AD0A0330B4000030B5008030BF
:100438003506F00080307002031D242A0130340292
:10044800031C772A0A30F4000030F5003408F00065
:100458003508F1007E207808F0007908F10070086E
:10046800BC000A30F4000030F5003408F00035080C
:10047800F1007E207008BE000130BD003D08323C0E
:10048800031C722A09108516891405113C08F0000E
:10049800F00D7010700886003C0888001A30FC00C7
:1004A800F830FD00FD0B562AFC0B562A00000914F3
:1004B8008512891005153E08F000F00D70107008BF
:1004C80086003E0888001A30FC00F830FD00FD0B5D
:1004D8006B2AFC0B6B2A0000BD0A422A0130B402C9
:1004E800031CB5031B2A85018901860188012C0894
:0C04F8002F3E8400000887000717080052
:10050400E7208A110A128000840ABA0A0319BB0A76
:08051400F003031D822A080018
:10051C00033083120313AB00AC01AD01AE011130FB
:10052C00AF002130B0000A30B1000C30B200B30182
:10053C00B401B501B601B701B801B9010130831698
:10054C008600831286018B170B16831601178901FF
:10055C008312890180308316870083128701013052
:10056C0083168500880183128801871FBF2AFF200C
:08057C00C02AFC21BB2AC12AA0
:02400E004A2F37
:00000001FF
